{"abi":[{"type":"constructor","inputs":[],"stateMutability":"nonpayable"},{"type":"function","name":"campaigns","inputs":[{"name":"","type":"uint256","internalType":"uint256"}],"outputs":[{"name":"CampaignAddress","type":"address","internalType":"address"},{"name":"owner","type":"address","internalType":"address"},{"name":"name","type":"string","internalType":"string"},{"name":"creationTime","type":"uint256","internalType":"uint256"}],"stateMutability":"view"},{"type":"function","name":"createCampaign","inputs":[{"name":"_name","type":"string","internalType":"string"},{"name":"_description","type":"string","internalType":"string"},{"name":"_goal","type":"uint256","internalType":"uint256"},{"name":"_durationInDays","type":"uint256","internalType":"uint256"}],"outputs":[],"stateMutability":"nonpayable"},{"type":"function","name":"getAllCampaigns","inputs":[],"outputs":[{"name":"","type":"tuple[]","internalType":"struct CrowdfundingFactory.Campaign[]","components":[{"name":"CampaignAddress","type":"address","internalType":"address"},{"name":"owner","type":"address","internalType":"address"},{"name":"name","type":"string","internalType":"string"},{"name":"creationTime","type":"uint256","internalType":"uint256"}]}],"stateMutability":"view"},{"type":"function","name":"getUserCampaigns","inputs":[{"name":"_user","type":"address","internalType":"address"}],"outputs":[{"name":"","type":"tuple[]","internalType":"struct CrowdfundingFactory.Campaign[]","components":[{"name":"CampaignAddress","type":"address","internalType":"address"},{"name":"owner","type":"address","internalType":"address"},{"name":"name","type":"string","internalType":"string"},{"name":"creationTime","type":"uint256","internalType":"uint256"}]}],"stateMutability":"view"},{"type":"function","name":"owner","inputs":[],"outputs":[{"name":"","type":"address","internalType":"address"}],"stateMutability":"view"},{"type":"function","name":"paused","inputs":[],"outputs":[{"name":"","type":"bool","internalType":"bool"}],"stateMutability":"view"},{"type":"function","name":"togglePause","inputs":[],"outputs":[],"stateMutability":"nonpayable"},{"type":"function","name":"userCampaigns","inputs":[{"name":"","type":"address","internalType":"address"},{"name":"","type":"uint256","internalType":"uint256"}],"outputs":[{"name":"CampaignAddress","type":"address","internalType":"address"},{"name":"owner","type":"address","internalType":"address"},{"name":"name","type":"string","internalType":"string"},{"name":"creationTime","type":"uint256","internalType":"uint256"}],"stateMutability":"view"}],"bytecode":{"object":"0x6080604052348015600e575f5ffd5b50335f5f6101000a81548173ffffffffffffffffffffffffffffffffffffffff021916908373ffffffffffffffffffffffffffffffffffffffff16021790555061401a8061005b5f395ff3fe608060405234801561000f575f5ffd5b5060043610610086575f3560e01c80638da5cb5b116100595780638da5cb5b1461012c578063a1e5084c1461014a578063a318f2691461017a578063c4ae31681461019657610086565b8063141961bc1461008a57806319ac74bd146100bd5780635c975abb146100f057806386cdf6041461010e575b5f5ffd5b6100a4600480360381019061009f9190610b30565b6101a0565b6040516100b49493929190610c19565b60405180910390f35b6100d760048036038101906100d29190610c8d565b61029f565b6040516100e79493929190610c19565b60405180910390f35b6100f86103a9565b6040516101059190610ce5565b60405180910390f35b6101166103bb565b6040516101239190610e7f565b60405180910390f35b61013461055a565b6040516101419190610e9f565b60405180910390f35b610164600480360381019061015f9190610eb8565b61057e565b6040516101719190610e7f565b60405180910390f35b610194600480360381019061018f919061100f565b61075a565b005b61019e610a27565b005b600181815481106101af575f80fd5b905f5260205f2090600402015f91509050805f015f9054906101000a900473ffffffffffffffffffffffffffffffffffffffff1690806001015f9054906101000a900473ffffffffffffffffffffffffffffffffffffffff1690806002018054610218906110d8565b80601f0160208091040260200160405190810160405280929190818152602001828054610244906110d8565b801561028f5780601f106102665761010080835404028352916020019161028f565b820191905f5260205f20905b81548152906001019060200180831161027257829003601f168201915b5050505050908060030154905084565b6002602052815f5260405f2081815481106102b8575f80fd5b905f5260205f2090600402015f9150915050805f015f9054906101000a900473ffffffffffffffffffffffffffffffffffffffff1690806001015f9054906101000a900473ffffffffffffffffffffffffffffffffffffffff1690806002018054610322906110d8565b80601f016020809104026020016040519081016040528092919081815260200182805461034e906110d8565b80156103995780601f1061037057610100808354040283529160200191610399565b820191905f5260205f20905b81548152906001019060200180831161037c57829003601f168201915b5050505050908060030154905084565b5f60149054906101000a900460ff1681565b60606001805480602002602001604051908101604052809291908181526020015f905b82821015610551578382905f5260205f2090600402016040518060800160405290815f82015f9054906101000a900473ffffffffffffffffffffffffffffffffffffffff1673ffffffffffffffffffffffffffffffffffffffff1673ffffffffffffffffffffffffffffffffffffffff168152602001600182015f9054906101000a900473ffffffffffffffffffffffffffffffffffffffff1673ffffffffffffffffffffffffffffffffffffffff1673ffffffffffffffffffffffffffffffffffffffff1681526020016002820180546104b8906110d8565b80601f01602080910402602001604051908101604052809291908181526020018280546104e4906110d8565b801561052f5780601f106105065761010080835404028352916020019161052f565b820191905f5260205f20905b81548152906001019060200180831161051257829003601f168201915b50505050508152602001600382015481525050815260200190600101906103de565b50505050905090565b5f5f9054906101000a900473ffffffffffffffffffffffffffffffffffffffff1681565b606060025f8373ffffffffffffffffffffffffffffffffffffffff1673ffffffffffffffffffffffffffffffffffffffff1681526020019081526020015f20805480602002602001604051908101604052809291908181526020015f905b8282101561074f578382905f5260205f2090600402016040518060800160405290815f82015f9054906101000a900473ffffffffffffffffffffffffffffffffffffffff1673ffffffffffffffffffffffffffffffffffffffff1673ffffffffffffffffffffffffffffffffffffffff168152602001600182015f9054906101000a900473ffffffffffffffffffffffffffffffffffffffff1673ffffffffffffffffffffffffffffffffffffffff1673ffffffffffffffffffffffffffffffffffffffff1681526020016002820180546106b6906110d8565b80601f01602080910402602001604051908101604052809291908181526020018280546106e2906110d8565b801561072d5780601f106107045761010080835404028352916020019161072d565b820191905f5260205f20905b81548152906001019060200180831161071057829003601f168201915b50505050508152602001600382015481525050815260200190600101906105dc565b505050509050919050565b5f60149054906101000a900460ff16156107a9576040517f08c379a00000000000000000000000000000000000000000000000000000000081526004016107a090611152565b60405180910390fd5b5f33858585856040516107bb90610adf565b6107c9959493929190611170565b604051809103905ff0801580156107e2573d5f5f3e3d5ffd5b5090505f8190505f60405180608001604052808373ffffffffffffffffffffffffffffffffffffffff1681526020013373ffffffffffffffffffffffffffffffffffffffff168152602001888152602001428152509050600181908060018154018082558091505060019003905f5260205f2090600402015f909190919091505f820151815f015f6101000a81548173ffffffffffffffffffffffffffffffffffffffff021916908373ffffffffffffffffffffffffffffffffffffffff1602179055506020820151816001015f6101000a81548173ffffffffffffffffffffffffffffffffffffffff021916908373ffffffffffffffffffffffffffffffffffffffff1602179055506040820151816002019081610901919061136f565b5060608201518160030155505060025f3373ffffffffffffffffffffffffffffffffffffffff1673ffffffffffffffffffffffffffffffffffffffff1681526020019081526020015f2081908060018154018082558091505060019003905f5260205f2090600402015f909190919091505f820151815f015f6101000a81548173ffffffffffffffffffffffffffffffffffffffff021916908373ffffffffffffffffffffffffffffffffffffffff1602179055506020820151816001015f6101000a81548173ffffffffffffffffffffffffffffffffffffffff021916908373ffffffffffffffffffffffffffffffffffffffff1602179055506040820151816002019081610a11919061136f565b5060608201518160030155505050505050505050565b5f5f9054906101000a900473ffffffffffffffffffffffffffffffffffffffff1673ffffffffffffffffffffffffffffffffffffffff163373ffffffffffffffffffffffffffffffffffffffff1614610ab5576040517f08c379a0000000000000000000000000000000000000000000000000000000008152600401610aac90611488565b60405180910390fd5b5f60149054906101000a900460ff16155f60146101000a81548160ff021916908315150217905550565b612b3e806114a783390190565b5f604051905090565b5f5ffd5b5f5ffd5b5f819050919050565b610b0f81610afd565b8114610b19575f5ffd5b50565b5f81359050610b2a81610b06565b92915050565b5f60208284031215610b4557610b44610af5565b5b5f610b5284828501610b1c565b91505092915050565b5f73ffffffffffffffffffffffffffffffffffffffff82169050919050565b5f610b8482610b5b565b9050919050565b610b9481610b7a565b82525050565b5f81519050919050565b5f82825260208201905092915050565b8281835e5f83830152505050565b5f601f19601f8301169050919050565b5f610bdc82610b9a565b610be68185610ba4565b9350610bf6818560208601610bb4565b610bff81610bc2565b840191505092915050565b610c1381610afd565b82525050565b5f608082019050610c2c5f830187610b8b565b610c396020830186610b8b565b8181036040830152610c4b8185610bd2565b9050610c5a6060830184610c0a565b95945050505050565b610c6c81610b7a565b8114610c76575f5ffd5b50565b5f81359050610c8781610c63565b92915050565b5f5f60408385031215610ca357610ca2610af5565b5b5f610cb085828601610c79565b9250506020610cc185828601610b1c565b9150509250929050565b5f8115159050919050565b610cdf81610ccb565b82525050565b5f602082019050610cf85f830184610cd6565b92915050565b5f81519050919050565b5f82825260208201905092915050565b5f819050602082019050919050565b610d3081610b7a565b82525050565b5f82825260208201905092915050565b5f610d5082610b9a565b610d5a8185610d36565b9350610d6a818560208601610bb4565b610d7381610bc2565b840191505092915050565b610d8781610afd565b82525050565b5f608083015f830151610da25f860182610d27565b506020830151610db56020860182610d27565b5060408301518482036040860152610dcd8282610d46565b9150506060830151610de26060860182610d7e565b508091505092915050565b5f610df88383610d8d565b905092915050565b5f602082019050919050565b5f610e1682610cfe565b610e208185610d08565b935083602082028501610e3285610d18565b805f5b85811015610e6d5784840389528151610e4e8582610ded565b9450610e5983610e00565b925060208a01995050600181019050610e35565b50829750879550505050505092915050565b5f6020820190508181035f830152610e978184610e0c565b905092915050565b5f602082019050610eb25f830184610b8b565b92915050565b5f60208284031215610ecd57610ecc610af5565b5b5f610eda84828501610c79565b91505092915050565b5f5ffd5b5f5ffd5b7f4e487b71000000000000000000000000000000000000000000000000000000005f52604160045260245ffd5b610f2182610bc2565b810181811067ffffffffffffffff82111715610f4057610f3f610eeb565b5b80604052505050565b5f610f52610aec565b9050610f5e8282610f18565b919050565b5f67ffffffffffffffff821115610f7d57610f7c610eeb565b5b610f8682610bc2565b9050602081019050919050565b828183375f83830152505050565b5f610fb3610fae84610f63565b610f49565b905082815260208101848484011115610fcf57610fce610ee7565b5b610fda848285610f93565b509392505050565b5f82601f830112610ff657610ff5610ee3565b5b8135611006848260208601610fa1565b91505092915050565b5f5f5f5f6080858703121561102757611026610af5565b5b5f85013567ffffffffffffffff81111561104457611043610af9565b5b61105087828801610fe2565b945050602085013567ffffffffffffffff81111561107157611070610af9565b5b61107d87828801610fe2565b935050604061108e87828801610b1c565b925050606061109f87828801610b1c565b91505092959194509250565b7f4e487b71000000000000000000000000000000000000000000000000000000005f52602260045260245ffd5b5f60028204905060018216806110ef57607f821691505b602082108103611102576111016110ab565b5b50919050565b7f466163746f7279206973207061757365640000000000000000000000000000005f82015250565b5f61113c601183610ba4565b915061114782611108565b602082019050919050565b5f6020820190508181035f83015261116981611130565b9050919050565b5f60a0820190506111835f830188610b8b565b81810360208301526111958187610bd2565b905081810360408301526111a98186610bd2565b90506111b86060830185610c0a565b6111c56080830184610c0a565b9695505050505050565b5f819050815f5260205f209050919050565b5f6020601f8301049050919050565b5f82821b905092915050565b5f6008830261122b7fffffffffffffffffffffffffffffffffffffffffffffffffffffffffffffffff826111f0565b61123586836111f0565b95508019841693508086168417925050509392505050565b5f819050919050565b5f61127061126b61126684610afd565b61124d565b610afd565b9050919050565b5f819050919050565b61128983611256565b61129d61129582611277565b8484546111fc565b825550505050565b5f5f905090565b6112b46112a5565b6112bf818484611280565b505050565b5b818110156112e2576112d75f826112ac565b6001810190506112c5565b5050565b601f821115611327576112f8816111cf565b611301846111e1565b81016020851015611310578190505b61132461131c856111e1565b8301826112c4565b50505b505050565b5f82821c905092915050565b5f6113475f198460080261132c565b1980831691505092915050565b5f61135f8383611338565b9150826002028217905092915050565b61137882610b9a565b67ffffffffffffffff81111561139157611390610eeb565b5b61139b82546110d8565b6113a68282856112e6565b5f60209050601f8311600181146113d7575f84156113c5578287015190505b6113cf8582611354565b865550611436565b601f1984166113e5866111cf565b5f5b8281101561140c578489015182556001820191506020850194506020810190506113e7565b868310156114295784890151611425601f891682611338565b8355505b6001600288020188555050505b505050505050565b7f4e6f74206f776e657200000000000000000000000000000000000000000000005f82015250565b5f611472600983610ba4565b915061147d8261143e565b602082019050919050565b5f6020820190508181035f83015261149f81611466565b905091905056fe608060405234801561000f575f5ffd5b50604051612b3e380380612b3e833981810160405281019061003191906102c5565b835f908161003f919061057b565b50826001908161004f919061057b565b50816002819055508460045f6101000a81548173ffffffffffffffffffffffffffffffffffffffff021916908373ffffffffffffffffffffffffffffffffffffffff16021790555062015180816100a69190610677565b426100b191906106b8565b6003819055505f600460156101000a81548160ff021916908360028111156100dc576100db6106eb565b5b02179055505050505050610718565b5f604051905090565b5f5ffd5b5f5ffd5b5f73ffffffffffffffffffffffffffffffffffffffff82169050919050565b5f610125826100fc565b9050919050565b6101358161011b565b811461013f575f5ffd5b50565b5f815190506101508161012c565b92915050565b5f5ffd5b5f5ffd5b5f601f19601f8301169050919050565b7f4e487b71000000000000000000000000000000000000000000000000000000005f52604160045260245ffd5b6101a48261015e565b810181811067ffffffffffffffff821117156101c3576101c261016e565b5b80604052505050565b5f6101d56100eb565b90506101e1828261019b565b919050565b5f67ffffffffffffffff821115610200576101ff61016e565b5b6102098261015e565b9050602081019050919050565b8281835e5f83830152505050565b5f610236610231846101e6565b6101cc565b9050828152602081018484840111156102525761025161015a565b5b61025d848285610216565b509392505050565b5f82601f83011261027957610278610156565b5b8151610289848260208601610224565b91505092915050565b5f819050919050565b6102a481610292565b81146102ae575f5ffd5b50565b5f815190506102bf8161029b565b92915050565b5f5f5f5f5f60a086880312156102de576102dd6100f4565b5b5f6102eb88828901610142565b955050602086015167ffffffffffffffff81111561030c5761030b6100f8565b5b61031888828901610265565b945050604086015167ffffffffffffffff811115610339576103386100f8565b5b61034588828901610265565b9350506060610356888289016102b1565b9250506080610367888289016102b1565b9150509295509295909350565b5f81519050919050565b7f4e487b71000000000000000000000000000000000000000000000000000000005f52602260045260245ffd5b5f60028204905060018216806103c257607f821691505b6020821081036103d5576103d461037e565b5b50919050565b5f819050815f5260205f209050919050565b5f6020601f8301049050919050565b5f82821b905092915050565b5f600883026104377fffffffffffffffffffffffffffffffffffffffffffffffffffffffffffffffff826103fc565b61044186836103fc565b95508019841693508086168417925050509392505050565b5f819050919050565b5f61047c61047761047284610292565b610459565b610292565b9050919050565b5f819050919050565b61049583610462565b6104a96104a182610483565b848454610408565b825550505050565b5f5f905090565b6104c06104b1565b6104cb81848461048c565b505050565b5b818110156104ee576104e35f826104b8565b6001810190506104d1565b5050565b601f82111561053357610504816103db565b61050d846103ed565b8101602085101561051c578190505b610530610528856103ed565b8301826104d0565b50505b505050565b5f82821c905092915050565b5f6105535f1984600802610538565b1980831691505092915050565b5f61056b8383610544565b9150826002028217905092915050565b61058482610374565b67ffffffffffffffff81111561059d5761059c61016e565b5b6105a782546103ab565b6105b28282856104f2565b5f60209050601f8311600181146105e3575f84156105d1578287015190505b6105db8582610560565b865550610642565b601f1984166105f1866103db565b5f5b82811015610618578489015182556001820191506020850194506020810190506105f3565b868310156106355784890151610631601f891682610544565b8355505b6001600288020188555050505b505050505050565b7f4e487b71000000000000000000000000000000000000000000000000000000005f52601160045260245ffd5b5f61068182610292565b915061068c83610292565b925082820261069a81610292565b915082820484148315176106b1576106b061064a565b5b5092915050565b5f6106c282610292565b91506106cd83610292565b92508282019050808211156106e5576106e461064a565b5b92915050565b7f4e487b71000000000000000000000000000000000000000000000000000000005f52602160045260245ffd5b612419806107255f395ff3fe60806040526004361061011e575f3560e01c80637284e4161161009f578063b85dfb8011610063578063b85dfb8014610390578063c19d93fb146103cc578063c4ae3168146103f6578063ca1d209d1461040c578063de170570146104285761011e565b80637284e416146102b05780637497211b146102da5780637adba527146103025780638da5cb5b1461033e5780638ece7b91146103685761011e565b80633ccfd60b116100e65780633ccfd60b14610206578063401938831461021c578063590e1ae3146102465780635c975abb1461025c5780636f9fb98a146102865761011e565b8063039af9eb1461012257806306fdde0314610160578063105505151461018a57806329dcb0cf146101b4578063389b7533146101de575b5f5ffd5b34801561012d575f5ffd5b5061014860048036038101906101439190611462565b610452565b6040516101579392919061150c565b60405180910390f35b34801561016b575f5ffd5b5061017461050d565b6040516101819190611548565b60405180910390f35b348015610195575f5ffd5b5061019e610598565b6040516101ab91906115db565b60405180910390f35b3480156101bf575f5ffd5b506101c8610612565b6040516101d591906115f4565b60405180910390f35b3480156101e9575f5ffd5b5061020460048036038101906101ff9190611462565b610618565b005b348015610211575f5ffd5b5061021a610745565b005b348015610227575f5ffd5b50610230610900565b60405161023d91906115f4565b60405180910390f35b348015610251575f5ffd5b5061025a610906565b005b348015610267575f5ffd5b50610270610a93565b60405161027d9190611627565b60405180910390f35b348015610291575f5ffd5b5061029a610aa6565b6040516102a791906115f4565b60405180910390f35b3480156102bb575f5ffd5b506102c4610aad565b6040516102d19190611548565b60405180910390f35b3480156102e5575f5ffd5b5061030060048036038101906102fb9190611462565b610b39565b005b34801561030d575f5ffd5b506103286004803603810190610323919061169a565b610cde565b6040516103359190611627565b60405180910390f35b348015610349575f5ffd5b50610352610d43565b60405161035f91906116e7565b60405180910390f35b348015610373575f5ffd5b5061038e6004803603810190610389919061182c565b610d68565b005b34801561039b575f5ffd5b506103b660048036038101906103b19190611886565b610eaa565b6040516103c391906115f4565b60405180910390f35b3480156103d7575f5ffd5b506103e0610ec4565b6040516103ed91906115db565b60405180910390f35b348015610401575f5ffd5b5061040a610ed7565b005b61042660048036038101906104219190611462565b610f92565b005b348015610433575f5ffd5b5061043c611202565b6040516104499190611a10565b60405180910390f35b60058181548110610461575f80fd5b905f5260205f2090600302015f91509050805f01805461048090611a5d565b80601f01602080910402602001604051908101604052809291908181526020018280546104ac90611a5d565b80156104f75780601f106104ce576101008083540402835291602001916104f7565b820191905f5260205f20905b8154815290600101906020018083116104da57829003601f168201915b5050505050908060010154908060020154905083565b5f805461051990611a5d565b80601f016020809104026020016040519081016040528092919081815260200182805461054590611a5d565b80156105905780601f1061056757610100808354040283529160200191610590565b820191905f5260205f20905b81548152906001019060200180831161057357829003601f168201915b505050505081565b5f5f60028111156105ac576105ab611568565b5b600460159054906101000a900460ff1660028111156105ce576105cd611568565b5b1480156105dc575060035442115b156105fc576002544710156105f25760026105f5565b60015b905061060f565b600460159054906101000a900460ff1690505b90565b60035481565b60045f9054906101000a900473ffffffffffffffffffffffffffffffffffffffff1673ffffffffffffffffffffffffffffffffffffffff163373ffffffffffffffffffffffffffffffffffffffff16146106a7576040517f08c379a000000000000000000000000000000000000000000000000000000000815260040161069e90611ad7565b60405180910390fd5b5f60028111156106ba576106b9611568565b5b600460159054906101000a900460ff1660028111156106dc576106db611568565b5b1461071c576040517f08c379a000000000000000000000000000000000000000000000000000000000815260040161071390611b3f565b60405180910390fd5b620151808161072b9190611b8a565b60035f82825461073b9190611bcb565b9250508190555050565b60045f9054906101000a900473ffffffffffffffffffffffffffffffffffffffff1673ffffffffffffffffffffffffffffffffffffffff163373ffffffffffffffffffffffffffffffffffffffff16146107d4576040517f08c379a00000000000000000000000000000000000000000000000000000000081526004016107cb90611ad7565b60405180910390fd5b6107dc611301565b600160028111156107f0576107ef611568565b5b600460159054906101000a900460ff16600281111561081257610811611568565b5b14610852576040517f08c379a000000000000000000000000000000000000000000000000000000000815260040161084990611c48565b60405180910390fd5b5f4790505f8111610898576040517f08c379a000000000000000000000000000000000000000000000000000000000815260040161088f90611cb0565b60405180910390fd5b60045f9054906101000a900473ffffffffffffffffffffffffffffffffffffffff1673ffffffffffffffffffffffffffffffffffffffff166108fc8290811502906040515f60405180830381858888f193505050501580156108fc573d5f5f3e3d5ffd5b5050565b60025481565b61090e611301565b60028081111561092157610920611568565b5b600460159054906101000a900460ff16600281111561094357610942611568565b5b14610983576040517f08c379a000000000000000000000000000000000000000000000000000000000815260040161097a90611d18565b60405180910390fd5b5f60065f3373ffffffffffffffffffffffffffffffffffffffff1673ffffffffffffffffffffffffffffffffffffffff1681526020019081526020015f205f015490505f8111610a08576040517f08c379a00000000000000000000000000000000000000000000000000000000081526004016109ff90611d80565b60405180910390fd5b5f60065f3373ffffffffffffffffffffffffffffffffffffffff1673ffffffffffffffffffffffffffffffffffffffff1681526020019081526020015f205f01819055503373ffffffffffffffffffffffffffffffffffffffff166108fc8290811502906040515f60405180830381858888f19350505050158015610a8f573d5f5f3e3d5ffd5b5050565b600460149054906101000a900460ff1681565b5f47905090565b60018054610aba90611a5d565b80601f0160208091040260200160405190810160405280929190818152602001828054610ae690611a5d565b8015610b315780601f10610b0857610100808354040283529160200191610b31565b820191905f5260205f20905b815481529060010190602001808311610b1457829003601f168201915b505050505081565b60045f9054906101000a900473ffffffffffffffffffffffffffffffffffffffff1673ffffffffffffffffffffffffffffffffffffffff163373ffffffffffffffffffffffffffffffffffffffff1614610bc8576040517f08c379a0000000000000000000000000000000000000000000000000000000008152600401610bbf90611ad7565b60405180910390fd5b805f11158015610bdc575060058054905081105b610c1b576040517f08c379a0000000000000000000000000000000000000000000000000000000008152600401610c1290611de8565b60405180910390fd5b60056001600580549050610c2f9190611e06565b81548110610c4057610c3f611e39565b5b905f5260205f20906003020160058281548110610c6057610c5f611e39565b5b905f5260205f2090600302015f8201815f019081610c7e919061201b565b5060018201548160010155600282015481600201559050506005805480610ca857610ca7612100565b5b600190038181905f5260205f2090600302015f5f82015f610cc991906113c6565b600182015f9055600282015f90555050905550565b5f60065f8473ffffffffffffffffffffffffffffffffffffffff1673ffffffffffffffffffffffffffffffffffffffff1681526020019081526020015f206001015f8381526020019081526020015f205f9054906101000a900460ff16905092915050565b60045f9054906101000a900473ffffffffffffffffffffffffffffffffffffffff1681565b60045f9054906101000a900473ffffffffffffffffffffffffffffffffffffffff1673ffffffffffffffffffffffffffffffffffffffff163373ffffffffffffffffffffffffffffffffffffffff1614610df7576040517f08c379a0000000000000000000000000000000000000000000000000000000008152600401610dee90611ad7565b60405180910390fd5b5f8111610e39576040517f08c379a0000000000000000000000000000000000000000000000000000000008152600401610e3090612177565b60405180910390fd5b600560405180606001604052808481526020018381526020015f815250908060018154018082558091505060019003905f5260205f2090600302015f909190919091505f820151815f019081610e8f9190612195565b50602082015181600101556040820151816002015550505050565b6006602052805f5260405f205f91509050805f0154905081565b600460159054906101000a900460ff1681565b60045f9054906101000a900473ffffffffffffffffffffffffffffffffffffffff1673ffffffffffffffffffffffffffffffffffffffff163373ffffffffffffffffffffffffffffffffffffffff1614610f66576040517f08c379a0000000000000000000000000000000000000000000000000000000008152600401610f5d90611ad7565b60405180910390fd5b600460149054906101000a900460ff1615600460146101000a81548160ff021916908315150217905550565b5f6002811115610fa557610fa4611568565b5b600460159054906101000a900460ff166002811115610fc757610fc6611568565b5b14611007576040517f08c379a0000000000000000000000000000000000000000000000000000000008152600401610ffe90611b3f565b60405180910390fd5b600460149054906101000a900460ff1615611057576040517f08c379a000000000000000000000000000000000000000000000000000000000815260040161104e906122ae565b60405180910390fd5b600580549050811061109e576040517f08c379a000000000000000000000000000000000000000000000000000000000815260040161109590612316565b60405180910390fd5b600581815481106110b2576110b1611e39565b5b905f5260205f209060030201600101543414611103576040517f08c379a00000000000000000000000000000000000000000000000000000000081526004016110fa9061237e565b60405180910390fd5b6005818154811061111757611116611e39565b5b905f5260205f2090600302016002015f8154809291906111369061239c565b91905055503460065f3373ffffffffffffffffffffffffffffffffffffffff1673ffffffffffffffffffffffffffffffffffffffff1681526020019081526020015f205f015f8282546111899190611bcb565b92505081905550600160065f3373ffffffffffffffffffffffffffffffffffffffff1673ffffffffffffffffffffffffffffffffffffffff1681526020019081526020015f206001015f8381526020019081526020015f205f6101000a81548160ff0219169083151502179055506111ff611301565b50565b60606005805480602002602001604051908101604052809291908181526020015f905b828210156112f8578382905f5260205f2090600302016040518060600160405290815f8201805461125590611a5d565b80601f016020809104026020016040519081016040528092919081815260200182805461128190611a5d565b80156112cc5780601f106112a3576101008083540402835291602001916112cc565b820191905f5260205f20905b8154815290600101906020018083116112af57829003601f168201915b505050505081526020016001820154815260200160028201548152505081526020019060010190611225565b50505050905090565b5f600281111561131457611313611568565b5b600460159054906101000a900460ff16600281111561133657611335611568565b5b036113c457600354421061138657600254471015611355576002611358565b60015b600460156101000a81548160ff0219169083600281111561137c5761137b611568565b5b02179055506113c3565b600254471015611396575f611399565b60015b600460156101000a81548160ff021916908360028111156113bd576113bc611568565b5b02179055505b5b565b5080546113d290611a5d565b5f825580601f106113e35750611400565b601f0160209004905f5260205f20908101906113ff9190611403565b5b50565b5b8082111561141a575f815f905550600101611404565b5090565b5f604051905090565b5f5ffd5b5f5ffd5b5f819050919050565b6114418161142f565b811461144b575f5ffd5b50565b5f8135905061145c81611438565b92915050565b5f6020828403121561147757611476611427565b5b5f6114848482850161144e565b91505092915050565b5f81519050919050565b5f82825260208201905092915050565b8281835e5f83830152505050565b5f601f19601f8301169050919050565b5f6114cf8261148d565b6114d98185611497565b93506114e98185602086016114a7565b6114f2816114b5565b840191505092915050565b6115068161142f565b82525050565b5f6060820190508181035f83015261152481866114c5565b905061153360208301856114fd565b61154060408301846114fd565b949350505050565b5f6020820190508181035f83015261156081846114c5565b905092915050565b7f4e487b71000000000000000000000000000000000000000000000000000000005f52602160045260245ffd5b600381106115a6576115a5611568565b5b50565b5f8190506115b682611595565b919050565b5f6115c5826115a9565b9050919050565b6115d5816115bb565b82525050565b5f6020820190506115ee5f8301846115cc565b92915050565b5f6020820190506116075f8301846114fd565b92915050565b5f8115159050919050565b6116218161160d565b82525050565b5f60208201905061163a5f830184611618565b92915050565b5f73ffffffffffffffffffffffffffffffffffffffff82169050919050565b5f61166982611640565b9050919050565b6116798161165f565b8114611683575f5ffd5b50565b5f8135905061169481611670565b92915050565b5f5f604083850312156116b0576116af611427565b5b5f6116bd85828601611686565b92505060206116ce8582860161144e565b9150509250929050565b6116e18161165f565b82525050565b5f6020820190506116fa5f8301846116d8565b92915050565b5f5ffd5b5f5ffd5b7f4e487b71000000000000000000000000000000000000000000000000000000005f52604160045260245ffd5b61173e826114b5565b810181811067ffffffffffffffff8211171561175d5761175c611708565b5b80604052505050565b5f61176f61141e565b905061177b8282611735565b919050565b5f67ffffffffffffffff82111561179a57611799611708565b5b6117a3826114b5565b9050602081019050919050565b828183375f83830152505050565b5f6117d06117cb84611780565b611766565b9050828152602081018484840111156117ec576117eb611704565b5b6117f78482856117b0565b509392505050565b5f82601f83011261181357611812611700565b5b81356118238482602086016117be565b91505092915050565b5f5f6040838503121561184257611841611427565b5b5f83013567ffffffffffffffff81111561185f5761185e61142b565b5b61186b858286016117ff565b925050602061187c8582860161144e565b9150509250929050565b5f6020828403121561189b5761189a611427565b5b5f6118a884828501611686565b91505092915050565b5f81519050919050565b5f82825260208201905092915050565b5f819050602082019050919050565b5f82825260208201905092915050565b5f6118f48261148d565b6118fe81856118da565b935061190e8185602086016114a7565b611917816114b5565b840191505092915050565b61192b8161142f565b82525050565b5f606083015f8301518482035f86015261194b82826118ea565b91505060208301516119606020860182611922565b5060408301516119736040860182611922565b508091505092915050565b5f6119898383611931565b905092915050565b5f602082019050919050565b5f6119a7826118b1565b6119b181856118bb565b9350836020820285016119c3856118cb565b805f5b858110156119fe57848403895281516119df858261197e565b94506119ea83611991565b925060208a019950506001810190506119c6565b50829750879550505050505092915050565b5f6020820190508181035f830152611a28818461199d565b905092915050565b7f4e487b71000000000000000000000000000000000000000000000000000000005f52602260045260245ffd5b5f6002820490506001821680611a7457607f821691505b602082108103611a8757611a86611a30565b5b50919050565b7f4f6e6c79204f776e65722063616e20646f207468697320616374696f6e0000005f82015250565b5f611ac1601d83611497565b9150611acc82611a8d565b602082019050919050565b5f6020820190508181035f830152611aee81611ab5565b9050919050565b7f43616d706169676e206973206e6f206c6f6e67657220616374697665000000005f82015250565b5f611b29601c83611497565b9150611b3482611af5565b602082019050919050565b5f6020820190508181035f830152611b5681611b1d565b9050919050565b7f4e487b71000000000000000000000000000000000000000000000000000000005f52601160045260245ffd5b5f611b948261142f565b9150611b9f8361142f565b9250828202611bad8161142f565b91508282048414831517611bc457611bc3611b5d565b5b5092915050565b5f611bd58261142f565b9150611be08361142f565b9250828201905080821115611bf857611bf7611b5d565b5b92915050565b7f43616d706169676e206973206e6f74207375636365737366756c6c20796574005f82015250565b5f611c32601f83611497565b9150611c3d82611bfe565b602082019050919050565b5f6020820190508181035f830152611c5f81611c26565b9050919050565b7f4e6f2062616c616e636520746f207769746864726177000000000000000000005f82015250565b5f611c9a601683611497565b9150611ca582611c66565b602082019050919050565b5f6020820190508181035f830152611cc781611c8e565b9050919050565b7f526566756e64206e6f7420617661696c61626c650000000000000000000000005f82015250565b5f611d02601483611497565b9150611d0d82611cce565b602082019050919050565b5f6020820190508181035f830152611d2f81611cf6565b9050919050565b7f4e6f20636f6e747269627574696f6e20746f20726566756e64000000000000005f82015250565b5f611d6a601983611497565b9150611d7582611d36565b602082019050919050565b5f6020820190508181035f830152611d9781611d5e565b9050919050565b7f5469657220646f6573206e6f74206578697374000000000000000000000000005f82015250565b5f611dd2601383611497565b9150611ddd82611d9e565b602082019050919050565b5f6020820190508181035f830152611dff81611dc6565b9050919050565b5f611e108261142f565b9150611e1b8361142f565b9250828203905081811115611e3357611e32611b5d565b5b92915050565b7f4e487b71000000000000000000000000000000000000000000000000000000005f52603260045260245ffd5b5f81549050611e7481611a5d565b9050919050565b5f819050815f5260205f209050919050565b5f6020601f8301049050919050565b5f82821b905092915050565b5f60088302611ed77fffffffffffffffffffffffffffffffffffffffffffffffffffffffffffffffff82611e9c565b611ee18683611e9c565b95508019841693508086168417925050509392505050565b5f819050919050565b5f611f1c611f17611f128461142f565b611ef9565b61142f565b9050919050565b5f819050919050565b611f3583611f02565b611f49611f4182611f23565b848454611ea8565b825550505050565b5f5f905090565b611f60611f51565b611f6b818484611f2c565b505050565b5b81811015611f8e57611f835f82611f58565b600181019050611f71565b5050565b601f821115611fd357611fa481611e7b565b611fad84611e8d565b81016020851015611fbc578190505b611fd0611fc885611e8d565b830182611f70565b50505b505050565b5f82821c905092915050565b5f611ff35f1984600802611fd8565b1980831691505092915050565b5f61200b8383611fe4565b9150826002028217905092915050565b8181036120295750506120fe565b61203282611e66565b67ffffffffffffffff81111561204b5761204a611708565b5b6120558254611a5d565b612060828285611f92565b5f601f83116001811461208d575f841561207b578287015490505b6120858582612000565b8655506120f7565b601f19841661209b87611e7b565b96506120a686611e7b565b5f5b828110156120cd578489015482556001820191506001850194506020810190506120a8565b868310156120ea57848901546120e6601f891682611fe4565b8355505b6001600288020188555050505b5050505050505b565b7f4e487b71000000000000000000000000000000000000000000000000000000005f52603160045260245ffd5b7f416d6f756e74206d7573742062652067726561746572207468616e20300000005f82015250565b5f612161601d83611497565b915061216c8261212d565b602082019050919050565b5f6020820190508181035f83015261218e81612155565b9050919050565b61219e8261148d565b67ffffffffffffffff8111156121b7576121b6611708565b5b6121c18254611a5d565b6121cc828285611f92565b5f60209050601f8311600181146121fd575f84156121eb578287015190505b6121f58582612000565b86555061225c565b601f19841661220b86611e7b565b5f5b828110156122325784890151825560018201915060208501945060208101905061220d565b8683101561224f578489015161224b601f891682611fe4565b8355505b6001600288020188555050505b505050505050565b7f436f6e74726163742069732070617573656400000000000000000000000000005f82015250565b5f612298601283611497565b91506122a382612264565b602082019050919050565b5f6020820190508181035f8301526122c58161228c565b9050919050565b7f496e76616c6964207469657200000000000000000000000000000000000000005f82015250565b5f612300600c83611497565b915061230b826122cc565b602082019050919050565b5f6020820190508181035f83015261232d816122f4565b9050919050565b7f496e76616c696420616d6f756e7420676976656e0000000000000000000000005f82015250565b5f612368601483611497565b915061237382612334565b602082019050919050565b5f6020820190508181035f8301526123958161235c565b9050919050565b5f6123a68261142f565b91507fffffffffffffffffffffffffffffffffffffffffffffffffffffffffffffffff82036123d8576123d7611b5d565b5b60018201905091905056fea2646970667358221220212c17f8d492d8d27e317957878cedbba4aeb3ddd8891efbd204031cc3714c2d64736f6c634300081e0033a264697066735822122080c7bc96487d84bb4be2518f0580d3a299b2293b63febe3f66b1cd7092207c1a64736f6c634300081e0033","linkReferences":{}},"methodIdentifiers":{"campaigns(uint256)":"141961bc","createCampaign(string,string,uint256,uint256)":"a318f269","getAllCampaigns()":"86cdf604","getUserCampaigns(address)":"a1e5084c","owner()":"8da5cb5b","paused()":"5c975abb","togglePause()":"c4ae3168","userCampaigns(address,uint256)":"19ac74bd"},"id":18}